:020000040800F2
:10000000683F002011020008190200081B020008C6
:1000100000000000000000000000000000000000E0
:10002000000000000000000000000000A1460008E1
:10003000000000000000000097010008815D00083A
:1000400023020008230200082302000823020008FC
:1000500023020008230200082302000823020008EC
:1000600023020008230200082302000823020008DC
:1000700023020008230200082302000823020008CC
:10008000ED5E000823020008230200082302000896
:1000900023020008230200082302000823020008AC
:1000A000230200082302000823020008455F00081D
:1000B000915F000823020008FD22000823020008C7
:1000C00000F002F800F03DF80CA030C80838241801
:1000D0002D18A246671EAB4654465D46AC4201D180
:1000E00000F02FF87E460F3E0FCCB6460126334275
:1000F00000D0FB1AA246AB46334318474CA600007B
:100100006CA600000023002400250026103A01D32D
:1001100078C1FBD8520700D330C100D50B607047BF
:1001200010B5752902D100F03DF910BD732902D137
:1001300001F06AF910BD002010BD1FB51FBD10B53C
:1001400010BD01F04BFB1146FFF7F7FF07F0E0FA97
:1001500001F063FB03B4FFF7F2FF03BC01F094FB73
:10016000084B19680868203080F30988022080F362
:100170001488BFF36F8F3FBCAE4608BC04BC62B6A8
:100180001847000090020020EFF3108072B670470D
:1001900080F310887047EFF309800E4B1A682038FF
:1001A0001060F0C044464D4656465F46F0C008B564
:1001B00072B609F08DF962B60CBC1168086810308F
:1001C000F0C8A046A946B246BB4680F3098820384D
:1001D000F0C818479002002070B505460C46164638
:1001E00002E00FCC0FC5103E102EFAD2082E02D31B
:1001F00003CC03C5083E042E07D301CC01C5361F2E
:1002000003E021782970641C6D1C761EF9D270BD44
:100210000748804707480047FEE7FEE7FEE7FEE79E
:10022000FEE7FEE704480549054A064B7047000013
:10023000755E0008C1000008000B0020683F002028
:10024000000D0020683B002010B5202A04DB014689
:10025000203A9140002010BD914020239C1A034673
:10026000E3401943904010BD10B5202A04DB084636
:10027000203AD040002110BD0B462024D340D0406E
:10028000A21A91400843194610BD4343514330B56B
:100290005C18010C130C0D4692B25D4380B25143C1
:1002A0002C19054655430A0C09044D19624158435F
:1002B000010C00044019514130BD00000FB41CB5C1
:1002C000074B06AA7B4469460090059801F071F837
:1002D0000020694601F080F81CBC08BC04B0184737
:1002E00011110000F8B50E46044600202062204699
:1002F000E1688847002829D0252802D06268A168D3
:1003000020E0E16820460027884705001ED02846E7
:100310004138192802D80127FF02203532462046ED
:1003200027602946FFF7FCFE002808D0012804D0EA
:10033000F61DF608F6000836D9E7361DD7E76268DD
:100340002846A1689047206A401CCFE7206AF8BD84
:1003500070B50C460546012A05D02878800600D5E0
:10036000EA69002302E0012305E05B1C934202D20C
:10037000E05C0028F9D1A869E618C01AA861286ACB
:10038000C01828622846C046C04604E06A68207843
:10039000A968641C9047B442F8D32846C046C046BA
:1003A00070BD0000F7B5002575291068009914A6E6
:1003B00011D0C046C046002802DA404211A608E02B
:1003C000009909688A0701D50FA602E0490704D5FC
:1003D0000EA6012501E0C046C046009F0024243738
:1003E00004E001F015F830313955641C0028F8D1CB
:1003F0002B4632462146009800F07DFFFEBD0000EE
:10040000000000002D0000002B0000002000000074
:1004100030B505460B462A461C781078521C5B1CEA
:10042000002801D0A042F7D0002C03D0002802D031
:100430006D1CEFE7284630BD30B5441C03E0017861
:10044000401C00290DD08107F9D10B4BDD0104C8F8
:10045000D11A91432940FAD0001B0A0603D0C01ECE
:1004600030BD001B30BD0A0401D0801E30BD090222
:10047000FCD0401E30BD000001010101F8B5042A86
:100480002CD3830712D00B78491C0370401C521EDA
:1004900083070BD00B78491C0370401C521E830746
:1004A00004D00B78491C0370401C521E8B079B0F15
:1004B00005D0C91ADF002023DE1B08C90AE0FFF7B8
:1004C0008BFEF8BD1D4608C9FD401C46B4402C43B8
:1004D00010C0121F042AF5D2F308C91A521EF0D414
:1004E0000B78491C0370401C521EEAD40B78491C3F
:1004F0000370401C012AE4D409780170F8BDD2B21F
:1005000010B513029A1813049A1800F00EF810BDD3
:1005100001E004C0091F0429FBD28B0701D502802A
:10052000801CC90700D00270704700290BD0C30798
:1005300002D00270401C491E022904D3830702D551
:100540000280801C891EE3E70022EEE70022DFE73D
:10055000002203098B422CD3030A8B4211D30023C0
:100560009C464EE003460B433CD4002243088B429A
:1005700031D303098B421CD3030A8B4201D3944627
:100580003FE0C3098B4201D3CB01C01A524183091A
:100590008B4201D38B01C01A524143098B4201D3D4
:1005A0004B01C01A524103098B4201D30B01C01AFF
:1005B0005241C3088B4201D3CB00C01A5241830879
:1005C0008B4201D38B00C01A524143088B4201D3A6
:1005D0004B00C01A5241411A00D201465241104606
:1005E00070475DE0CA0F00D04942031000D340427B
:1005F000534000229C4603098B422DD3030A8B42B1
:1006000012D3FC22890112BA030A8B420CD389014E
:1006100092118B4208D3890192118B4204D3890134
:100620003AD0921100E08909C3098B4201D3CB0172
:10063000C01A524183098B4201D38B01C01A524127
:1006400043098B4201D34B01C01A524103098B422B
:1006500001D30B01C01A5241C3088B4201D3CB0016
:10066000C01A524183088B4201D38B00C01A5241F9
:10067000D9D243088B4201D34B00C01A5241411AD0
:1006800000D20146634652415B10104601D34042FE
:10069000002B00D54942704763465B1000D34042AF
:1006A00001B50020C046C04602BD70477047704784
:1006B0000246C80FC00781434B0030B54B405B007A
:1006C0009B0D20D01923DB06C91801231B05994275
:1006D00020DB0324A40704251346AB400BD3002BD7
:1006E00004D1EB0613409B00E34204D401246407C9
:1006F000002312195941FF231B0599420BD2C9004F
:100700000143500F09E0CB0204D501430803024323
:1007100005D0054830BDFF21C905084330BD084656
:1007200007210905884330BD0000C07FF0B50C46A5
:10073000871A9C410D46861A9D4103D2C01BA141D8
:10074000D21963410D0D1F0DC94EEC1BAE435CD099
:100750007F057F0D0026002F51D02D05AC46A94303
:10076000DD020123ED0A1B051D4320231B1B24D49E
:100770001746E740381871412F46E740CC199D4095
:100780002818314661410C0D27D161449A4013D598
:100790000023401C594152000ED140084000012264
:1007A0004B005205D34207D305204007C14201D573
:1007B000B04900E0B0493046F0BD6B00002A00D0DF
:1007C00001229A181F23203C1B1B01D5002302E0A5
:1007D000E540281871410C0DD7D0012424050919D2
:1007E000C407CD0740084908E40F28436144002CA2
:1007F000D5D00024401C61419A40D0D1CDE76A0594
:10080000520DD9D1C90FC907D5E79C4D4E0000281C
:1008100001D0012400E0002434195F00002A01D037
:10082000012600E00026BE19954FAC420CD8AE421E
:100830000AD8B44206D001256D05EC42BCD0104662
:100840001946F0BD9942FCD000203946F0BDF0B504
:100850001FB40C460F46811A9F412546861A9D41BA
:1008600006D20125ED076F40401ABC4152187B416A
:10087000210D1E0D8D1BAC467D4D8D437ED0750523
:100880006D0D7CD00D05AE46AC431B031B0B794DA3
:1008900052429D41202366469B1B14D31746F740C6
:1008A000381800260090744160462F460741E4192D
:1008B00000989D402818664116D4714671189A40D8
:1008C00025D5012320E093182A466A415200002BC7
:1008D00000D0521C1E23203E9B1B002B61DD3541A6
:1008E000EE1728186641E8D5001876415B1C9A403F
:1008F00000D3401C4B05F3181524E34010D3002B04
:1009000052D071467118D30FC01802D3491C05B0DC
:10091000F0BD0123DB079A42F9D140084000F6E719
:1009200001225205B21801D1002853D00123CC0A6C
:10093000DB029943891E002A08D1020C03D0020C65
:100940000004103902E00246002020390023550B34
:1009500005D112020823550B01D152010D23550C6C
:1009600001D112011B1DD50C01D192009B1C150D4C
:1009700001D152005B1C2025EE1A01E02CE022E0A0
:100980000546F54015439840CA1AE1076918130552
:10099000C918002ABBDA032040070818C10FC9078D
:1009A0000FE071466118B2E7F10740080843711083
:1009B00071444A000CD001235B059A42A7D2C90FAB
:1009C000C9070020A3E74905490D26D1002001E011
:1009D0000028F4D100219AE7284D6600002801D0B4
:1009E000012100E0002171185F00002A01D00126DA
:1009F00000E00026BE19224FA94210D8AE420ED800
:100A0000B14208D001256D05E94206D01946A80279
:100A1000414010467BE79C4201D0214677E7002009
:100A2000394674E710B50C465C4005D50124E4074F
:100A30006340FFF70CFF10BDFFF778FE10BD30B428
:100A40000C465C4004D50124E407634030BC6DE6ED
:100A500030BCFCE670B50124E40761400D465D4002
:100A600002D4FFF763FE70BD6340FFF7F0FE70BD78
:100A7000FF0700000000F0FF0000F07F0000E0FF33
:100A80000000F87FF0B5F94D0C091E092C402E40EE
:100A90002F468BB0A7437DD0B543FCD0002E7AD033
:100AA000002CFCD00D465D40ED0F2543AC1BFF250F
:100AB000AD0464190894C502440DC9022143500DC8
:100AC000DC0204430120C00701430443D202019128
:100AD000200C110C00958C46010423468B430A918F
:100AE00061460904E24D8A430991010A7D4449198E
:100AF0008039097805464D4301266D18F605751BAA
:100B00006943C90C640B891C4C436418B5012C1B48
:100B1000250C2E04B4434C434D43210C691889091C
:100B20000591009DE90701D00121C90704912C46D8
:100B300001996708CD072F434C08059DE10B4D43F4
:100B40002D0C29466646754302950D4645432E46B3
:100B5000029D7D1BB44100950D465D4301942C0C14
:100B60002F040D465543AE462D0C3D43029503948C
:100B70007546049C2D04641B049406D2029C039DBC
:100B8000641C002675410395029401AC70CC009F53
:100B90007D1B01E03EE162E1B4410904009507914B
:100BA00001940599A4086143090C0C464443650B64
:100BB000E7040C4666467443A646640B3C43039523
:100BC00002947446049DE4042C1B049406D2029CF7
:100BD000039D641C002675410395029401AC70CC02
:100BE000009F7D1BB44101940C465C430095650F4A
:100BF000E7000C465443A646640F3C430395029419
:100C00007446049DE4002C1B049406D2029C039DB0
:100C1000641C002675410395029401AC70CC009FC2
:100C20007D1BB441AE09AF06049DC900AD092F4339
:100C3000049DA406AD060495079D344369180791E9
:100C4000059DE10B4D432D0C2946664675430295E3
:100C50000D4645432E46029D7D1BB44100950D4631
:100C60005D4301942C0C2F040D465543AE462D0CCC
:100C70003D43029503947546049C2D04641B049423
:100C800006D2029C039D641C0026754103950294C4
:100C900001AC70CC009F7D1BB44101948C0506947F
:100CA000079C890A611800950791019C0599A40881
:100CB0006143090C0D464543680BEF040D4664463D
:100CC00065436C0B3C43049FED047D1BAC4602D294
:100CD0000025641C6841009E019D371B8541084624
:100CE000584301950C46460FC5005443600F2843F6
:100CF0006546E4002C1B02D20025401C6E41019D7C
:100D00003F1AB5412846BD09800628438446A009FC
:100D1000BF064E020699A40676180743079D0020D9
:100D200068410A99079019430020099B009060468A
:100D3000FF1913434041E20F64003A43A4460446BE
:100D4000D71A8C41A04203D90120009020463A4690
:100D5000C70F941840416246D20F22436446640094
:100D60000494009CBE466400D71AA4460446029729
:100D70008C417746002F01D1A04204D96046401C27
:100D80008446029A2046C40FA64694184041049A0D
:100D90000546D20F224364466400D31A8D41714642
:100DA000002901D1A84202D928461A46641C1043E2
:100DB0000122002800D0164361020020079B8919F8
:100DC00004465C410223002C02DB491813466441AF
:100DD000089DCE0A2D145D194B056705E10A2C0507
:100DE0000D1908993E43C9076940002B08D093406C
:100DF00006D30022761C5141002B01D176087600E3
:100E00001C4A002D43DB154241D0AA433FD0304657
:100E10000BB0F0BD06180D464D41174C7642AC4163
:100E20001AD395181C465C41134A6D42A24113D354
:100E3000012252054C00D4420AD15C00D4420BD0AE
:100E40004B4002D592021143E2E749004908DFE72F
:100E50005940C90FC90718E000200849D8E70548DC
:100E600001420DD10342F7D0F2E700000000FF0776
:100E7000E89700000000F07F0000E0FF0000F87F2E
:100E8000114859400143C01241400020C0E70123EE
:100E9000089A9B069A4205DC032252078918C90F5B
:100EA000C907B5E7052252078918074A1143D2122C
:100EB0005140ADE770B515461C4602460B46284624
:100EC0002146FFF7DFFD70BDFFFFFF7F30B5420D0C
:100ED000CB0205461343C402081504D00122D207F1
:100EE000134300281FDB134A121A11D4502A00D3CF
:100EF00050221946D1401546203D02D41846E840FC
:100F000003E02020851A1846A840D440204330BD75
:100F10004A00002D01D0012000E00020101801221D
:100F20005205D04202D90020014630BDC917C8433E
:100F3000C94330BD3E0400001F22030C02D10F2222
:100F4000000402D0030E03D004E0002001467047E5
:100F50000002083A030F01D10001121F830F01D1D3
:100F60008000921E002801DB4000521E120551181D
:100F70004205C012411810467047C10FC90700D082
:100F80004042012292071143D6E701218907D3E7A6
:100F900010B50B1E01D0202301E0011E2BD00C0C3C
:100FA00001D10904103B0C0E01D10902083B0C0FC2
:100FB00001D109011B1F8C0F01D189009B1E002943
:100FC00001DB49005B1E0446DC4021431C05A418DC
:100FD0002022D21A90404B05C20AC90A1A430919A5
:100FE000830501D1430818401623984002D30020FE
:100FF000521C4141104610BDCA0FD20703D00B4608
:10100000002140429941024B1A43C1E7004ABFE721
:101010000000D041F0B58B4C0F09254689B0BD4387
:101020007BD01D092646AE43FAD00E465E402740CF
:10103000F60F3E43254071D024012142FBD0FF240E
:10104000AD19A4042D1B039501252D05DB02DB0A38
:10105000C9022B43C90A29431E010901040F130FBA
:10106000050121431701880B820391432D098C460A
:10107000A90B1E438A039543B30B9A0396433F097A
:10108000BA0B9403A74302962E467E430497B646B6
:101090004E19D7190C460196544305977E43371BCA
:1010A0007646BF1B3601B646BE0B3619009676460D
:1010B000BC043719009C01D3641C00946400002F09
:1010C00001D001263443029E049F754366467E4349
:1010D0000496760034196E0034190094029C019E27
:1010E0001C196643751BAE46069465464519059C5A
:1010F00005956C43594375460891691A0191049E00
:1011000001465143A41B0491611A009C0791E1061A
:1011100005D061090122114302E072E06EE061092D
:10112000089D00272C0A2D066918049D7C412A0A77
:101130002D066918019D6241AC0DAD026D18544138
:10114000079A910D920255196141029A64465843DB
:101150005443069B059A5A43121A131B9A0E9B017D
:101160005B187A41010B0005C3185141220A200681
:1011700044195A419A4200D2491C0120400281423E
:1011800003D315230226F64302E014230326F64375
:101190002020C51AA9401746AF40DA400A4320462E
:1011A0000399D8400914731819055118039A384344
:1011B000D2075140AC4009D00122944006D300220E
:1011C000401C5141002C01D1400840001E4A93426E
:1011D00012D3012203989206904207DB05204007B4
:1011E00009181A480143C012414004E00320400797
:1011F0000818C10FC907002009B0F0BD0020F10791
:10120000FAE705180C464C4111486D42A04115D330
:1012100094181A465A410E48644290410ED3012058
:101220004A004005824209D35A00824206D35940FF
:10123000C90F084AC90700201143DDE7002006490D
:10124000DAE700000000FF07FE070000FFFFFF7F56
:101250000000E0FF0000F07F0000F87F0121C905D9
:101260000123411842001B06D3185B0E0AD0C1109F
:101270000722D206891840075242D14201D55200B6
:1012800089187047090208D50146002A03D0C10F0A
:10129000C9070020704710467047420202D0002064
:1012A00002497047072109050143F4E70000F87F70
:1012B0000102C21504D00123DB071943002A0ADB0F
:1012C0009E239A1A02D40846D0407047FF2241005C
:1012D0001206914201D900207047C017C0437047E1
:1012E00010B500F013FA006810BD10B5044600F008
:1012F0000DFA046010BDFFB504460D4681B02430E0
:1013000000902168880604D51022E069914321608D
:1013100000E00120A84201DD471B00E000270498FF
:10132000A1697A191018081AA0612078C00602D4A1
:101330002046C046C046002608E003986268A168BF
:10134000805D9047206A401C761C2062049886428B
:10135000F3DB2078C0060AD52046C046C04606E02A
:101360006268A16830209047206A401C206238469D
:101370007F1E0028F4DC07E000986268A168405DE9
:101380009047206A401C206228466D1E0028F3DC2E
:101390002046C046C0462078000602D5022005B08F
:1013A000F0BD0120FBE7000001694A1C02610878DA
:1013B000704700B58FB00291002105910549019356
:1013C00079440391114604906846FEF78BFF0FB0F5
:1013D00000BD0000E5FFFFFF0A681070521C0A60A4
:1013E000704710B54369002B02D0C046C04601E0EB
:1013F000FEF7AEFF012010BD1278014624310A70BD
:1014000000224A700122ECE711680022D243E8E78B
:1014100001468008081A02091018020A1018020C66
:101420001018C008820012185200891A01E0401CEE
:101430000A390A29FBD27047F8B5224C4E00069DA6
:10144000A6420AD8A64201D1002806D15E00A642D3
:1014500003D8A6420AD1002A08D00D24240425422C
:101460002CD02946002000F055F9F8BD0C461C434D
:101470000CD4994202D0EFF30080F8BD904202D024
:10148000EFF30080F8BDEFF30080F8BD09242407D6
:10149000E5008B4206D0EFF30080A043591A06D234
:1014A000284304E0101A05D3EFF30080A04380F333
:1014B0000088F8BDEFF30080A043F1E7009500F04D
:1014C00077F9F8BD0000E0FF70B505464800440D0F
:1014D000124B0020002C0AD0634008D09A4206DA52
:1014E0006642B24203DD12054019514170BD002C25
:1014F00008D0002B09D0C90FC907002AF6DB084A1B
:10150000114370BDC90FC90770BD28460A031043B7
:1015100002D00020034970BD284670BDFF070000BF
:101520000000F07F0000F87FF0B53D4B02460C460E
:101530001C400020002C63D03A4D8B4366D000291C
:101540006BDB0B0D1D05A94301252D052943012446
:10155000FD33E34001D392184941FF3381339C4668
:101560008B02940D0121234389074C4292020027EC
:101570001B198C105D1A04D42D1B02D42B46650058
:10158000491992185B416408F4D15C1A08D401250A
:10159000ED07EE175519744102D42A462346491C1B
:1015A00094185B41012292071D46E61B8D4106D42B
:1015B000B61A854103D42B46550034467F192419A9
:1015C0005B415208802AEFD1234300D002233846E2
:1015D0000A22D04001D3012213438A0510436246F8
:1015E000890A12058918002B09D00122D34002D3A1
:1015F0000022401C5141002B01D140084000F0BDA9
:101600000B03134307D0C90FC907F0BD08031043EC
:1016100003D1002901DB1046F0BD00202946F0BDB2
:101620000000F07F0000F87F10B5FF231B06440088
:101630009C421DD84C009C421AD80346124A0B43C8
:1016400007D4401A02D3EFF3008010BDEFF30080FF
:1016500010BD081A06D2EFF3008001219043C9079C
:10166000084302E0EFF30080904380F3008810BD50
:101670000D231B041A4204D01146002000F04AF842
:1016800010BD00F09FF810BD00000090C10D10B516
:101690000906090E2ED0FF2931D07E292DD319D06D
:1016A000962916D2024675398A4005D00024024692
:1016B0008A4003D3012302E00124F8E70023022239
:1016C000CA41511E8843002B03D08018002C00D043
:1016D000904310BD0121420201D1012200E000220D
:1016E000C00FC0070029F4D0002AF2D17F21C9051C
:1016F000084310BDC00FC00710BD0021EFE7410235
:10170000FAD0014810BD00000000C07F00487047BB
:10171000E4030020C80212D54803400F002804D07B
:10172000C803C043012188407047EFF300800001E7
:10173000000903210907084380F30088704700204F
:101740007047000030B50346CA02400D1043164DE5
:10175000164C0A1502D02043002A06DBAA1A002ADA
:1017600012DDD040FF2A0BDC30BD5205520D01D1F5
:1017700040004008AA1A07D4D0404042FF2A01DDA9
:10178000002030BD0028FCDD4A00002B01D00120E4
:1017900000E00020101801225205D042F0D8C817EE
:1017A000C043604030BD00001E0400000000008007
:1017B00010B500200249029A00F037F810BD000071
:1017C0000000F87F10B5024800F02FF810BD0000AF
:1017D0000000C07F00487047E40300207546FFF713
:1017E000F9FFAE46050069465346C008C00085466D
:1017F00018B020B5FEF716FD60BC00274908B646B4
:101800000026C0C5C0C5C0C5C0C5C0C5C0C5C0C50F
:10181000C0C5403D49008D46704710B50446C046DE
:10182000C0462046FEF796FC10BD10B50C461107C9
:10183000090F092904D00A290AD008290CD104E08B
:1018400011460820FFF766FF06E0510606D501E0C5
:10185000510601D50120C007214610BDD10607D58C
:1018600001010909CC084907000E0006044309E0FC
:10187000410F20024907000A0143200E00061D22E5
:10188000D14101430846E7E701491820ABBEFEE716
:1018900026000200704770B58C180578401C6B0755
:1018A0005B0F01D10378401C2A1106D10278401C3D
:1018B00003E00678401C0E70491C5B1EF9D12B0713
:1018C00005D40023521E0DD40B70491CFAE703788F
:1018D000401CCB1A921C03E01D780D70491C5B1C48
:1018E000521EF9D5A142D8D3002070BDF0B51FB467
:1018F000A6B016461F4600202490259000BF002267
:10190000B949229223910021B84A21922091B84AE4
:10191000B84B27992698FFF77DFB1F911E9000BFBB
:10192000B34AB44B31993098FFF774FB1D911C906A
:1019300000BF00BF00BF32463B4633993298FFF7E5
:101940007EF84A005208179216900022AA4B179967
:1019500008F0C4FA07D832463B4633993298FFF76D
:101960006EF82591249032463B4633993298FFF722
:1019700066F80022A14B1791169008F0AFFA0DD22D
:1019800000209F49339B329AFFF74CF832463B4682
:1019900017911690FFF753F82591249032463B4655
:1019A00033993298FFF74BF80022934B179116901A
:1019B00008F0C6FA0DD232463B4633993298FFF70B
:1019C0003EF800228E4B17911690FFF738F82591BC
:1019D0002490874A874B25992498FFF71BFB1B917E
:1019E0001A90209A1046219B1946FFF713FB11917C
:1019F0001090239B229AFFF745F813911290239B96
:101A0000229AFFF73FF800227E4B15911490FFF7C2
:101A100021F81791169007F057FB04460D46002257
:101A200001239B0720462946FFF72CF80B910A90CB
:101A30001F991E9807F0FAFA22462B460191009052
:101A4000FFF7E8FA00226F4B03910290FEF7EAFFDE
:101A5000079106901F991E9807F0E8FA22462B4638
:101A600001910090FFF7D6FA0022664B0391029095
:101A7000FEF7F0FF05910490079B069AFFF702F826
:101A8000099108900B9B0A9A05F01CFF0022012384
:101A90009B070F910E901F991E98FEF7F3FF0022EF
:101AA000594B09910890594903C9FEF7EBFF07917B
:101AB0000690099B089AFEF7B5FF0B910A9007F074
:101AC00027FB0D910C900F9B0E9AFFF7A3FA119133
:101AD000109005F073FC002201239B0715911490D0
:101AE00020462946FEF7CEFF0B910A901D991C98BF
:101AF00007F09CFA22462B4601910090FFF78AFAE4
:101B00000022404B03910290FEF78CFF0791069054
:101B10001D991C9807F08AFA22462B4601910090E5
:101B2000FFF778FA0022374B03910290FEF792FFFD
:101B300005910490079B069AFEF7A4FF099108906F
:101B40000B9B0A9A05F0BEFE002201239B070F9112
:101B50000E901D991C98FEF795FF00222A4B0991C3
:101B600008902A4903C9FEF78DFF07910690099B4B
:101B7000089AFEF757FF0B910A9007F0C9FA0D91EA
:101B80000C900F9B0E9AFFF745FA1191109005F0FB
:101B900015FC13911290159B149AFEF750FF024604
:101BA0000B46179116901B991A9805F0FDF819919C
:101BB0001890174A174B19991898FFF72BFA199193
:101BC0001890002213461999189808F087F907D23F
:101BD00000200B49199B189AFEF724FF19911890C1
:101BE000199918982BB0F0BDC0545841DF3F5841A7
:101BF00011DD52A246DF913F00806640008066C042
:101C0000008076400000F03F00001040E800002017
:101C1000B1C0631ADCA54C4070B564211C4805F0C6
:101C200059FA00201B4908601B4908701B490870BD
:101C30001BA11E4807F0D5F91D480468456800BF80
:101C40001B4801684068091BA8411A4B0022C91AA9
:101C5000904107DA11480078002803D10E48007837
:101C60000028EDD00C480078002809D000200A494F
:101C700008700A490870C82005F0F1FD012070BD08
:101C80000020054908700549087000BFF7E700000B
:101C900065080020500200205E0200205F02002044
:101CA00041542B43494943520D0000000038014084
:101CB00058010020204E000010B5044601214806BE
:101CC00002F0C0F900210120400602F0BBF910BD6E
:101CD00010B50021837A01229A401146394A1268D0
:101CE00001231A43374B1A601A46D2698A43DA61D4
:101CF000027B002A1AD11A46D2688A43DA60C28867
:101D0000120443881A43304B0924A4011B19847A16
:101D1000E4001A518288120403881A432A4B0924CA
:101D2000A4011B19847AE4001B195A60027B012A62
:101D30001BD1244AD2680A43224BDA60028812047B
:101D400043881A43204B0924A4011B19847AE40018
:101D50001A5182881204C3881A431B4B0924A40118
:101D60001B19847AE4001B195A60C27A002A05D133
:101D7000144A52688A43134B5A6004E0114A52686D
:101D80000A43104B5A600289002A04D10D4A526955
:101D90008A430C4B5A610289012A04D1094A5269CB
:101DA0000A43084B5A61427B012A04D1054AD26991
:101DB0000A43044BDA61034A126852085200014B8D
:101DC0001A6010BD006600400064004070B5044613
:101DD0000D4600266069284000286FD0FF210131A0
:101DE000681A8D4264D010DC082D3DD006DC012D30
:101DF00028D0022D2CD0042D7BD12FE0102D39D0EE
:101E0000202D3DD0402D74D140E07F221202811A56
:101E1000904268D00DDCFF38013800284FD0FF38E1
:101E2000FF380238002850D001218902401A60D1C1
:101E300051E00120C003081A2ED001210904401AE4
:101E400057D12FE0A0682E4900F0B6FF064652E0B9
:101E5000E068032100F0B0FF06464CE0E06808218E
:101E600000F0AAFF064646E0E068102100F0A4FF5B
:101E7000064640E02069032100F09EFF06463AE056
:101E80002069082100F098FF064634E020691021FF
:101E900000F092FF06462EE06068082100F08CFFFB
:101EA000064628E06068102100F086FF064622E022
:101EB000A069012100F080FF06461CE01CE0A0693B
:101EC000022100F079FF064615E0A069042100F028
:101ED00073FF06460FE0A069702100F06DFF064613
:101EE00009E006E0FFE76068042100F065FF0646B0
:101EF00001E0002600BF00E00026304670BD000073
:101F000001010100002A03D043690B43436102E051
:101F100043698B434361704730B50246002000237C
:101F200014680225AC431460146801252C43146026
:101F300000E05B1C5468E407E40F002C02D13C4C29
:101F4000A342F6D15468E407E40F002C01D100202D
:101F50006DE08C79012C04D1146880252C43146029
:101F600003E014688025AC431460CC79012C04D1C3
:101F7000146840252C43146003E014684025AC43EA
:101F800014600C7A012C04D1146820252C431460B1
:101F900003E014682025AC4314604C7A012C04D172
:101FA000146810252C43146003E014681025AC431A
:101FB00014608C7A012C04D1146808252C43146019
:101FC00003E014680825AC431460CC7A012C04D1DA
:101FD000146804252C43146003E014680425AC4302
:101FE00014608C78A407CD782D062C430D792D0430
:101FF0002C434D792D052C430D886D1E2C43D46147
:102000001468640864001460002300E05B1C5468DA
:10201000E407E40F002C02D0054CA342F6D154682B
:10202000E407E40F002C01D0002000E0012030BDC7
:10203000FFFFFF0010B50C010346FF33B1331B59FE
:10204000042423401372137A002B07D10C0103469A
:10205000FF33B1331B595B0D136006E00C010346DF
:10206000FF33B1331B59DB0853600C010346FF33C8
:10207000B1331B590224234053720C010346FF3332
:10208000B133E3185B681B071B0F93720C01034607
:10209000FF33B133E3185B681B041B0ED3740C01D0
:1020A0000346FF33B133E3189B68D3720C01034638
:1020B000FF33B133E3189B681B041C0E14730C012F
:1020C0000346FF33B133E3189B681B021C0E5473A5
:1020D0000C010346FF33B133E3189B681B0E937367
:1020E0000C010346FF33B133E318DB68D3730C01F3
:1020F0000346FF33B133E318DB681B041C0E147472
:102100000C010346FF33B133E318DB681B021C0EDE
:1021100054740C010346FF33B133E318DB681B0E24
:102120009374002904D1C36820242343C36003E0CF
:10213000036920242343036110BD000030B585B03E
:1021400004460D461648854205D8009500200190AA
:102150006946087205E00020009001950420694658
:102160000872002168464172082181722178C1728B
:1021700061780173A1784173E17881732179C1732A
:1021800061790174A1794174E179817469460548E6
:1021900000F01AF8012005F062FB05B030BD000028
:1021A000FF0700000064004000218171C1710172CD
:1021B00041728172C1728170C1700321017102216B
:1021C000417101210180704730B5024600209368BB
:1021D0000124A4062340A34200D110E09368012407
:1021E000E4062340A34201D1012008E093680124C2
:1021F00024072340A34201D1022000E00420042848
:102200007BD004011346FF3381331B59DC07E40FF5
:1022100005011346FF3381335C510B7A002B0FD13C
:102220000B885B054C7A234305011446FF34813447
:102230006459234305011446FF348134635110E08F
:102240004B68DB000C7A23434C7A23430501144688
:10225000FF3481346459234305011446FF3481342B
:1022600063518B7A1B071B0F8B7204011346FF33DC
:102270008133E3185B681C09240105011346FF3311
:102280008133EB185C6004011346FF338133E3189C
:102290005B688C7A234305011446FF3481342C1982
:1022A00063608B7B1B064C7B240423430C7B240242
:1022B0002343CC7A234305011446FF3481342C197F
:1022C000A3608B7C1B064C7C240423430C7C2402DF
:1022D0002343CC7B234305011446FF3481342C195E
:1022E000E36004011346FF3381331B590124234368
:1022F00005011446FF348134635130BDF0B58DB013
:10230000242168460175A02141750221F948FFF793
:102310005DFD01287ED10020F74988724860C874AD
:10232000087248720860C8720021F3480173417353
:102330008173C1730174417481740246ED48FFF7E3
:1023400079FEED48C17A08A80172EB48017B08A824
:102350004172E948417B08A88172E748817B08A85F
:10236000C172E548C17B08A80173E348017C08A855
:102370004173E148417C08A88173DF48817C08A84B
:10238000C173002006E00AA90A5C05AB011D5A547E
:10239000411CC8B20828F6DBD7480068FF21753118
:1023A00088423AD1D54908684968D54A10605160D9
:1023B0000021D44A116051600020D34A106050605F
:1023C000D248D34A1160506000240FE00AA8055D8E
:1023D0000027E20028463946FDF736FFCA4B0CCBF2
:1023E00080185941C84A03C2601CC4B2042CEDDDF8
:1023F000C54903C9FEF70AFE01910090C4480CC804
:102400000098FEF73FFB0022C24B03910290FEF7BB
:1024100016FB00E069E2BB4A03C2B7480068FF212F
:102420007631884237D1B54801684068B44A1160B6
:1024300050600020B84A10605060B84A1060506088
:10244000B249B74A03C2002410E00AA8065D002082
:10245000E2000C9030460C99FDF7F6FEAF4B0CCB2A
:1024600080185941AD4A03C2601CC4B2042CECDD93
:10247000AA4903C9FEF7CAFD01910090A8480CC8FB
:102480000098FEF7FFFA0022A64B03910290FEF798
:10249000D6FAA14A03C29848A34A4168881A9142D1
:1024A0007ED02ADCA14A881A91427AD012DCA04A56
:1024B000881A914276D008DC9E480818002872D00D
:1024C0009D494018002859D1C2E10D286CD0B1288F
:1024D000F9D1F6E101218902401A66D0FF38FF38B0
:1024E0000238002878D0FF38FF380238002874D02E
:1024F00007210902401AE6D1AFE03F229202811A79
:1025000090426BD016DC8D4A811A904267D008DC6D
:10251000FF380138002876D00B210902401AD2D1A9
:10252000D4E023204002081A6ED005210902401A87
:10253000C9D12EE1C81FFF38FA38002878D0FF38FB
:102540000138002875D07E494018002804D0FF3893
:1025500001380028B7D112E01121684681750521A4
:10256000C1750B21153004F0C0FD08A908700023C7
:1025700004AA05A97348006807F008FAB4E112211B
:10258000684681750521C1750B21153004F0ADFD3C
:1025900008A90870002304AA05A96A48006805E094
:1025A0006EE006E067E140E178E119E007F0EEF95E
:1025B0009AE10121684681750221C1750B21153010
:1025C00004F093FD08A90870002304AA05A95D483A
:1025D000006807F0DBF987E117E02BE0ECE0B3E0FF
:1025E0000521684681750221C1750B21153004F063
:1025F0007CFD08A90870002304AA05A951480068B9
:1026000007F0C4F970E14EE0B1E00721684681753A
:102610000221C1750B21153004F067FD08A908706F
:10262000002304AA05A94748006807F0AFF95BE159
:10263000D5E0E7E00921684681750221C1750B21CB
:10264000153004F052FD08A90870002304AA05A95A
:102650003C48006807F09AF946E110216846817508
:102660000221C1750B21153004F03FFD08A9087047
:10267000002304AA05A93348006807F087F933E16D
:102680001521684681750221C1750B21153004F0B2
:102690002CFD08A90870002304AA05A92948006890
:1026A00007F074F920E11621684681750221C17591
:1026B0000B21153004F019FD08A90870002304AAA5
:1026C00005A92048006807F061F90DE1212168465D
:1026D00081750221C1750B21153004F006FD08A992
:1026E0000870002304AA05A91648006807F04EF9EF
:1026F000FAE0000000640040E010002058010020D3
:10270000D8010020A80000207800002084D797413D
:102710008000002000805640C0000020880000207B
:102720009000002000806640031502180301021883
:10273000EFFE0000FC0FFFFF16F1FFFF00A80000F6
:102740000003FEFFD0010020BD21684681750221F3
:10275000C1750B21153004F0C8FC08A908700023CE
:1027600004AA05A96248006807F010F9BCE003213B
:1027700068468175C1750B21153004F0B6FC08A9B7
:102780000870002304AA05A95948006807F0FEF85C
:10279000AAE00821684681750321C1750B21153017
:1027A00004F0A3FC08A90870002304AA05A9504856
:1027B000006807F0EBF897E0112168468175032166
:1027C000C1750B21153004F090FC08A90870002396
:1027D00004AA05A94648006807F0D8F884E0132148
:1027E000684681750321C1750B21153004F07DFC0D
:1027F00008A90870002304AA05A93D48006807F04D
:10280000C5F871E01421684681750321C1750B215B
:10281000153004F06AFC08A90870002304AA05A971
:102820003348006807F0B2F85EE00421684681751D
:10283000F021C1750B21153004F057FC08A9087070
:10284000002304AA05A92A48006807F09FF84BE076
:10285000EE2168468175FE21C1750B21153004F00B
:1028600044FC08A90870002304AA05A920480068B0
:1028700007F08CF838E0EF2168468175FE21C175BC
:102880000B21153004F031FC08A90870002304AABC
:1028900005A91748006807F079F825E0FC2168468B
:1028A0008175FE21C1750B21153004F01EFC08A9AD
:1028B0000870002304AA05A90D48006807F066F80F
:1028C00012E0A02168468175FF21C1750B211530EA
:1028D00004F00BFC08A90870002304AA05A9044809
:1028E000006807F053F800BF00BF0DB0F0BD000056
:1028F000D0010020FFB581B00F461E463148046864
:10290000456800BF2F4801684068091BA841FF23A4
:102910002D330022C91A904103DA2B480078002891
:10292000F0D10120284908703B4628A12C48019A83
:10293000FDF7C4FC2A492B4806F053FBFF21284829
:1029400004F0C8FB1F480468456800BF1D480168C3
:102950004068091BA84114230022C91A904103DAD8
:10296000214800780028F1D000201F490870154840
:10297000046845683A461B48039906F043FB07E0A4
:102980001A480078002803D00020184908700CE08D
:102990000C4908684A68011BAA410020891B824132
:1029A00003DA134800780028EAD000BF002010495D
:1029B0000870054908700F4908700F49087005B084
:1029C000F0BD0000580100205402002041542B4368
:1029D000495053454E443D25752C25750D0000008A
:1029E0000306002000380140680200206102002038
:1029F000600200205E0200205F020020FFB5D1B01F
:102A000006460F460020509000BF0190FF2110A8FD
:102A100004F060FB322103A804F05CFB042102A84F
:102A200004F058FB68A110A85B9B5A9AFDF746FC7E
:102A300003A910A804F074FAFF2110A804F04AFBBF
:102A4000BBE00020624908800421624804F042FB98
:102A500061480078002816D0604804F000FF60A0AC
:102A600003F084FB7D20C00004F0F9FE60A003F0B9
:102A70007DFB7D20C00004F0F2FE00F0C3FA0020D0
:102A8000554908700AE0554804F0E9FE32465CA159
:102A900010A8FDF713FC10A803F068FB4F4804F0E2
:102AA000DEFEFF2110A804F015FB4B48007800283B
:102AB00000D082E053983B46324656A1009010A8C1
:102AC000FDF7FCFB10A803F051FB002861D0424841
:102AD0000078002800D070E0FF2110A804F0FAFA76
:102AE000544804F0BCFE03A83B460090524910A88D
:102AF000549AFDF7E3FB00205049087036480078EF
:102B000000280BD110A8FDF797FC80B27D231B0194
:102B100010AA014600900020FFF7ECFE4848046828
:102B2000456827E045480078002823D00020434925
:102B300008700421274804F0CDFA002041490870AC
:102B40004149087001205090642004F088FE3C4800
:102B5000016840683D4A1160506000213C4A1160A4
:102B600051603748016840683A4A1160506000205F
:102B700001900DE0324801684068091BA841364BBE
:102B80000022C91A904103DA134800780028C9D0FE
:102B900012E00198401CC0B20190019802280BDDA0
:102BA00001200D490870002001902C4908702C4923
:102BB0000870FF202B49087000BF5098002800D1F2
:102BC0003FE7509855B0F0BD25733A2573000000DB
:102BD0007C0200200109002051010020B80B0000F8
:102BE00041542B434950434C4F53453D302C310009
:102BF00041542B434950434C4F53453D312C3100F8
:102C000041542B434950434C4F53453D25752C317E
:102C10000000000041542B43495053544152543D4D
:102C200025752C22544350222C222573222C2573E7
:102C30000000000088130000BCA600086902002004
:102C4000580100205E0200205F02002038000020B2
:102C500038010020480000201027000071000020EB
:102C60007000002000000020F0B5C3B004460D46FF
:102C700016460027002042900190FF2102A804F090
:102C800029FA65E0224635A102A8FDF717FB02A844
:102C900003F06CFAFF2102A804F01CFA0198002846
:102CA00001D000F0AFF9002001902B46224630A160
:102CB00002A80096FDF702FB02A803F057FA0028CD
:102CC00006D0FF2102A804F005FA0120429013E08B
:102CD0002F480078401C2E490870084600780A28C2
:102CE0000ADD01200190002008702A4908702A4955
:102CF0000870FF20294908704298002828D0002039
:102D000026490870012722490870002C06D0244863
:102D100001684068234A1160506005E0204801685E
:102D20004068214A11605060002C06D01C480168A0
:102D300040681E4A1160506005E0194908684968FA
:102D40001B4A1060516000211A4A1160516001E075
:102D5000002F97D000BF384643B0F0BD41542B43FD
:102D60004950434C4F53453D25752C310000000020
:102D700041542B43495053544152543D25752C2204
:102D8000554450222C222573222C2573000000006C
:102D90007E02002071000020700000200000002052
:102DA0005801002040000020380000205000002082
:102DB00048000020400100200246002013460B403E
:102DC000002B01D0012000E00020704710B5022147
:102DD000064800F015F9322004F041FD02210348B5
:102DE00000F00CF9322004F03AFD10BD0004004858
:102DF00030B505460C4628782070FE206070687853
:102E0000A070A878E070E87820710421601C04F0BC
:102E10006CF9607130BD0000F7B584B00D46002438
:102E200000260027002003900290019000901421BA
:102E30003C4804F04FF900BF08E0A85D242803D106
:102E400001200290374605E0701C86B2FF20F53065
:102E50008642F2DB00BFFF20F530864202D100201F
:102E600007B0F0BD781C285C052810D004DC0128D0
:102E700007D0022814D107E006280BD0FF280FD175
:102E80000BE0042003900EE00E2003900BE00420E2
:102E9000039008E00C20039005E00520039002E079
:102EA0000020039000BF00BF0020E85500240AE086
:102EB0003819401C285C1B49085500213819401C52
:102EC0002954601C84B203988442F1DB02980028E4
:102ED00025D00398401E1349085C00900398401EBB
:102EE000C1B2104804F001F901900099019888429C
:102EF00013D1242106980170002406E00948025DE0
:102F0000611C06984254601C84B203988442F5DB2D
:102F10000398C019401CC0B2A2E70020A0E700201F
:102F20009EE70000030F0020F0B50A4600210023B1
:102F3000002400BF3DE001258D402B4615681D4053
:102F40002C469C4234D11579012D02D01579022DE1
:102F500016D185684F000326BE40B543856055797C
:102F60004E00B540866835438560858801268E40D1
:102F7000B5438580858896798E40B6B23543858085
:102F800005684F000326BE40B543056015794E0025
:102F9000B540066835430560C5684F000326BE404E
:102FA000B543C560D5794E00B540C6683543C560A8
:102FB000491C1029BFD3F0BDF0B5002300244D07F4
:102FC000EE0E1546B5402B46CD10AE000546203519
:102FD000AD594E07F70E0F26BE40B543CE10B600D2
:102FE00007462037BD51CD10AE003D46AD591D43BB
:102FF0002C46CD10AD003E467451F0BD01857047A2
:103000008161704708B500BF2CA003F0AFF87D20A8
:10301000C00004F024FC2C4800882C4A811A9042FD
:103020001ED006DC2A494018002807D0012832D1DA
:103030000DE005291DD04F292DD123E025A025A382
:1030400025A229A100902E48FDF738F923E02DA0F4
:103050002CA32EA224A100902948FDF72FF91AE0F5
:103060002CA02CA32CA220A100902548FDF726F926
:1030700011E018A017A318A21BA100902048FDF78B
:103080001DF908E029A029A32AA217A100901C4835
:10309000FDF714F900BF00BF194803F067F8FF21DE
:1030A000174804F017F8284804F0D9FBFEF7B4FDE0
:1030B0000128A9D100F02EF908BD000041542B438E
:1030C00049505348555400006A000020BC6100007C
:1030D000579EFFFF6D747300696E7465726E657440
:1030E0002E6D74732E72750041542B435354543D0E
:1030F000222573222C222573222C222573220000E4
:10310000030600206764617461000000696E7465E5
:10311000726E657400000000696E7465726E65748D
:103120002E74656C65322E72750000006265656CE8
:10313000696E6500696E7465726E65742E62656590
:103140006C696E652E727500B80B000010B5FF211A
:1031500001310648FFF754FFE120C00004F07FFB77
:10316000FF2101310148FFF749FF10BD000400486D
:1031700010B5FF2101310648FFF742FF7D20C00056
:1031800004F06DFBFF2101310148FFF737FF10BD4F
:103190000004004810B5FFF7D9FFE120C00004F09B
:1031A0005EFBFFF7E5FFAF20000104F058FB10BD08
:1031B00010B524A002F0DAFF24A002F0D7FF24A06B
:1031C00002F0D4FF00F036FA20A002F0CFFF24A0D6
:1031D00002F0CCFF25A002F0C9FF00BF25A002F03D
:1031E000C5FF0028FAD026A002F0C0FF27A002F0F9
:1031F000BDFF2AA002F0BAFF2BA002F0B7FF00F03B
:10320000B3F82C49088000F0DFFE2B49087008460F
:103210000078410040182949087029A002F0A6FF53
:103220002BA002F0A3FF2DA002F0A0FF2FA002F020
:103230009DFF31A002F09AFF33A002F097FF01201A
:1032400010BD000041545A300000000041540000FD
:1032500041542B4950523D3233303430300000005D
:1032600041542B4349505348555400004154453074
:103270000000000041542B4350494E3F0000000025
:1032800041542B434D47463D3100000041542B43F0
:103290005343533D2247534D2200000041542B44D9
:1032A0004445543D3100000041542B434F50533DA1
:1032B000302C32006A000020690000206C000020E1
:1032C00041542B4349504D4F44453D3000000000D0
:1032D00041542B4349504D55583D310041542B43E7
:1032E0004950484541443D310000000041542B43C2
:1032F00049504154533D300041542B43495053529F
:1033000049503D300000000041542B434C49503D92
:103310003100000070B564210C4803F0DBFE002092
:103320000B4908600BA10E4805F05BFE0D480468D0
:10333000456800BF0B48016840680A1BA841C821C6
:103340000023511A9841F5DB70BD0000650800208C
:103350005002002041542B43494653520D000000B7
:10336000003801405801002010B5002416E0062165
:10337000144803F0AFFE14A002F0F8FE0A2004F097
:103380006EFA14A314A218490E4803F0C5FF0D48A5
:1033900003F034FE84B2642004F061FA13488442DE
:1033A0000DD0401C84420AD010481330844206D00D
:1033B000401D844203D00D4862308442D7D120465C
:1033C00010BD00008C01002041542B434F50533F4F
:1033D00000000000220000002B434F50533A2030E1
:1033E0002C322C220000000065080020A96100009A
:1033F0000148024908607047AAAA00000030004056
:1034000000B587B004220B210920C006FFF7D4FDC8
:1034100004220C210920C006FFF7CEFD0320C002C4
:103420002449086002200871032048710020887137
:103430000120C8710920C006FFF776FD1E48FEF77F
:103440003BFC04A8FEF7B0FE002168468175C175FB
:10345000017641768176C1768174C1740C21017543
:10346000012141750A21018204A91348FEF754FD88
:103470000121684681720021C1720121017300217E
:1034800041800180C1808180018101214173FEF76B
:103490001FFC012202210848FEF734FD1E200749C7
:1034A00008700220487001208870084600F044F936
:1034B00007B000BDA001002000640040A80100206A
:1034C00010B54020064908600020087103204871AB
:1034D000002088710348FFF727FD00F0D5F810BDE4
:1034E000A00100200004004810B5FF200430074967
:1034F0000860012008710320487100208871044889
:10350000FFF712FD00F03EF810BD0000A001002002
:103510000004004810B500F0B5FD012000F046FFA2
:1035200000F0A0FF002000F081FF032189040120AA
:10353000000400F069FF012000F052FF022000F0BB
:1035400083FF002000F022FF002000F037FF012160
:103550000520000300F086FD0121084800F052FD1F
:103560000121074800F05EFD002400E0641C7D207E
:10357000C0008442FAD302F015FC10BD0100060021
:103580000200020210B51B20254908700020487077
:1035900001208870084600F0CFF801220921C806F2
:1035A000FFF70AFD01220A210920C006FFF704FDEA
:1035B000012040021B490860022008710320487165
:1035C000002088710120C8710920C006FFF7ACFCFB
:1035D0000120800213490860022008710920C006FA
:1035E000FFF7A2FCE12040020F490860002048607C
:1035F0008860C86048610C200861012109030B48FC
:1036000002F0A2FD0849094802F022FD0121074805
:1036100002F0E6FC01220649044802F0F7FC10BD66
:10362000A8010020A0010020201100200038014046
:103630000501050010B50021104802F0D1FCE12081
:1036400080020F490860002048608860C8604861B7
:103650000C20086101210903084802F075FD0849A2
:10366000064802F0F5FC0121044802F0B9FC0122F1
:103670000449024802F0CAFC10BD000000380140B5
:10368000201100200501050010B51C2025490870F7
:103690000020487001208870084600F04DF8012293
:1036A00002210920C006FFF787FC0122032109201F
:1036B000C006FFF781FC04201B4908600220087146
:1036C00003204871002088710120C8710920C006BC
:1036D000FFF72AFC0820144908600220087109201D
:1036E000C006FFF721FCE1204002104908600020DD
:1036F00048608860C86048610C20086101220C495C
:103700000C4802F083FC012109030A4802F01CFD69
:103710000649084802F09CFC0121064802F060FCC2
:1037200010BD0000A8010020A001002020110020F1
:10373000050105000044004000218278002A27D0BE
:10374000184A03231B02D21803789B109B00D15800
:1037500002789207D30EFF229A400B4693431946F4
:1037600042789207120E03789B07DB0E9A401143B2
:103770000C4A03231B02D21803789B109B00D150E4
:103780000278D306DB0E01229A40064B1A6007E04E
:103790000278D306DB0E01229A40024B80331A6076
:1037A0007047000000E100E0FEB504460025A67861
:1037B000E77830020C49084339040843054621796B
:1037C0006846017061794170A1798170E179C170B9
:1037D000217A0171617A4171A17A8171E17AC171B5
:1037E0002946FEF7ABFCFEBD03000018F0B591B012
:1037F0000024002500200F900026002701200E90B5
:1038000000BF5BE1B148005D0A287DD1002608E0D9
:10381000AF480078401CAE4908700A210E98484312
:103820000E90AC48AA490978405C002805D0A94808
:10383000A7490978405C2E28EAD104E0A648007820
:10384000401CA5490870A3481730A3490978405C7B
:10385000002806D09F4817309F490978405C2E28E1
:10386000ECD104E09D480078401C9C4908709948C0
:103870003B309A490978405C002806D095483B3097
:1038800096490978405C2E28ECD192480A3803F01A
:10389000B5FB934908608F4803F0B0FB914908607D
:1038A0008C480D3003F0AAFB8F4908608948173017
:1038B00003F0A4FB8D4908608648453003F09EFB69
:1038C0008B4A03C28A4903C90023C01A994103DA0B
:1038D0000020083A10605060854903C9854B0022DA
:1038E000181A8A4103DA0020814A106050600E984D
:1038F000FDF74BFB039102907A480068FDF745FB0A
:1039000001910090039B00E063E0029AFDF7BAF892
:1039100007910690642172480068FCF719FE08467A
:103920000391FDF732FB05910490079B069AFDF782
:1039300079F80022704B09910890FDF7A3F80D91DA
:103940000C90642166480068FCF702FE0990FDF7C0
:103950001CFB0B910A900D9B0C9AFDF763F8674ACC
:1039600003C20E98FDF711FB039102905F480068B7
:10397000FDF70BFB01910090039B029AFDF782F883
:1039800007910690642158480068FCF7E1FD08465D
:103990000391FDF7FAFA05910490079B069AFDF74B
:1039A00041F80022544B09910890FDF76BF80D91F6
:1039B0000C9064214C480068FCF7CAFD0990FDF7A3
:1039C000E4FA0B910A900D9B0C9AFDF72BF84C4AE8
:1039D00003C23E48005D2C2869D0330002F035FC5C
:1039E0000A66060E252B43494F6657663748025D27
:1039F00028466D1C374919390A5457E0002F07D162
:103A00003248025D28466D1C32490A390A5405E0E5
:103A10002E48025D28466D1C2E490A542B48005D35
:103A20002E2801D10127002540E02848015D2948C2
:103A3000C01D41713AE0002F07D12448025D28469D
:103A40006D1C24490D310A5406E02048025D2846C9
:103A50006D1C204917310A541C48005D2E2801D1E5
:103A60000127002522E01948015D1A48C01D017791
:103A70001CE01648015D1748C01D417716E0134849
:103A8000025D28466D1C134925310A540EE00F488B
:103A9000025D0F98411C0F910E4945310A540B48A5
:103AA000005D2E2801D10127002500BF05E0701C14
:103AB000C6B20027002500200F90641C1148006842
:103AC000844200D89EE611B0F0BD000066070020D9
:103AD00020000020410F00202100002022000020B3
:103AE000F4010020FC010020F80100200002002069
:103AF000080000207F96980000004E401000002033
:103B0000180000206400002070470000F0B5A5B048
:103B100004460025E0780A21FCF724FDCEB20021FE
:103B20001A911B9100201890199020790F910E90F6
:103B3000607911911090A07913911290E07915910C
:103B40001490207A17911690607A05910490A07ACB
:103B500007910690E07A09910890207B0B910A90DA
:103B6000607B0D910C90A078012800D10127A078EE
:103B7000022800D10227012F56D1002531E0E800AC
:103B80000EA9081801684068EA001F911E900846B7
:103B90001E99FCF759FB01910090FDF737FA03914C
:103BA00002901B9B1A9AFCF73DFF1B911A90E800AC
:103BB00004A9081801684068EA001D911C90084695
:103BC0001C99FCF741FB01910090FDF71FFA03914E
:103BD0000290199B189AFCF725FF19911890681C00
:103BE000C5B2042DCBDD00223B4B1B991A98FCF784
:103BF00049FF0022394B03910290FCF720FF32016C
:103C0000374B9A1803C20022334B19991898FCF7C6
:103C100039FF0022334B03910290FCF710FF320171
:103C20002F4BD218D1609060022F53D100252EE087
:103C3000E8000EA9091803C9EA0022912390FCF7B5
:103C400003FB01910090FDF7E1F9039102901B9BAA
:103C50001A9AFCF7E7FE1B911A90E80004A90818CD
:103C600001684068EA002191209008462099FCF7FD
:103C7000EBFA01910090FDF7C9F903910290199BAD
:103C8000189AFCF7CFFE19911890681CC5B2042D44
:103C9000CEDD0022104B1B991A98FCF7F3FE002290
:103CA0000E4B03910290FCF7CAFE32010E4B9A189C
:103CB00003C20022084B19991898FCF7E3FE002272
:103CC000084B03910290FCF7BAFE3201064BD21862
:103CD000D160906025B0F0BD84D7974100805640F8
:103CE000A00F00200080664040100020817801294C
:103CF00010D1C178084A117011460978012909D1FB
:103D000006490A684968064B1A6059600021054B4C
:103D10001960596070470000000000205801002021
:103D20005800002048010020FFB500210022002497
:103D30000025002303930293019300930679330037
:103D400002F083FA09060C13281A282828212800D3
:103D50000023844E3370844E337021E00823814E5B
:103D600033700023804E33701AE010237D4E337081
:103D700000237D4E337013E000237A4E3370082306
:103D8000794E33700CE00023764E33701023764E5C
:103D9000337005E00023734E3370734E337000BFF1
:103DA00000BF8379642B02D1002100220EE08379C9
:103DB000642B05DD4379643BD9B2FF235A1A05E031
:103DC00043796426F31ADAB2FF23991A4379642BF4
:103DD00002D1002400250EE04379642B05DD4379F0
:103DE000643BDCB2FF231D1B05E043796426F31A14
:103DF000DDB2FF235C1B037A642B03D10023039302
:103E0000029314E0037A642B08DD037A643BDBB28F
:103E10000393FF26039BF31A029308E0037A6426B8
:103E2000F31ADBB20293FF26029BF31A0393C379C2
:103E3000642B03D100230193009314E0C379642B16
:103E400008DDC379643BDBB20193FF26019BF31AC3
:103E5000009308E0C3796426F31ADBB20093FF26CF
:103E6000009BF31A0193437A404E337033461B781C
:103E7000FF2B01DBFF2333703D4B19705C709A7090
:103E8000DD70FF233A4E3371364B1B78737100237C
:103E9000B371FF23F371374E039B3370019B737033
:103EA000029BB370009BF370FF2333712E4B1B7882
:103EB00073710023B371FF23F3712F4E337073704E
:103EC000B3702A4B1B78F370FF2333717371012396
:103ED000B371F3710023294E33707370B370F370B4
:103EE00033717371B371837AF82B01D1012300E030
:103EF0000023234E3678002E01D1012600E0002653
:103F00003340002B08D001231D4E3370F1231B4E8C
:103F1000F37101231B4E3370837A002B01D10123EF
:103F200000E00023164E3678012E00D100E0002676
:103F30003340002B08D00023114E3370F0230F4E76
:103F4000F37101230F4E33700F4E336876680F4FB5
:103F50003B607E6000260E4F3E607E6001230D4E6A
:103F60003370FFBD2101002022010020200100202C
:103F7000E1080020E9080020F1080020F9080020ED
:103F80006001002055010020580100205800002049
:103F9000480100205401002000218278012A00D12C
:103FA00001218278022A00D10221012902D1C2789E
:103FB000034B1A70022902D1C278024B1A70704763
:103FC000010000200200002000B58DB007A002F023
:103FD000CDF808A308A20A49684603F09DF968468F
:103FE00003F00CF8C0B20DB000BD000041542B43EB
:103FF000535100002C0000002B4353513A000000A5
:1040000065080020002905D0054A52690243044B87
:104010005A6104E0024A52698243014B5A61704777
:1040200000100240002905D0054AD2690243044B22
:10403000DA6104E0024AD2698243014BDA617047D7
:1040400000100240002905D0054A12690243044BC2
:104050001A6104E0024A12698243014B1A617047F7
:1040600000100240002905D0054A92690243044B22
:104070009A6104E0024A92698243014B9A61704757
:1040800000100240194800680121084317490860E0
:1040900008464068164908401449486008460068C8
:1040A0001449084011490860084600680121890444
:1040B00088430E490860084640683F210904884348
:1040C0000A4948600846C06A00090001C8620846FB
:1040D000006B09490840054908630846406B4008E1
:1040E00040004863002088607047000000100240D4
:1040F0000CB8FF08FFFFF6FEACFEF0FFFEB504466D
:10410000002500260020029001900090002786489C
:1041100040680C2108400546002D06D0042D07D02C
:10412000082D08D00C2D2CD128E0804820602BE0F1
:104130007E48206028E07C4840680F2189040840C0
:104140000646794840680321C90308400290B00C34
:10415000861C0298002803D17548374647430BE078
:104160007148C06A0007000F401C01906F48019918
:10417000FCF7EEF970430746276005E06D482060C4
:1041800002E06A48206000BF00BF67484068F02135
:10419000084005462D096848405D00902068009958
:1041A000C840606060484068072109020840054631
:1041B0002D0A6148405D009061680098C140A1608F
:1041C0005948006BFF2101310840884202D05B480A
:1041D000E0600DE0544840680121890308408842AE
:1041E00003D0A0684008E06002E0A0688008E060BA
:1041F0004D48006B40210840402802D050482061C3
:1042000002E00120C00320614748006B10210840F4
:10421000102802D04548606101E020686061424892
:10422000006B8007800F002802D1A068A06119E010
:104230003D48006B8007800F012802D12068A061F3
:1042400010E03948006B8007800F022802D18003FC
:10425000A06107E03448006B8007800F032801D17C
:104260003248A0613048006B03210904084000284F
:1042700002D1A068E06120E02B48006B0321090413
:10428000084001210904884202D12068E06114E05D
:104290002548006B03210904084001214904884294
:1042A00002D18010E06108E01F48006B032109047F
:1042B0000840884201D11D48E0611B48006B032182
:1042C00089040840002802D1A068206220E0164836
:1042D000006B03218904084001218904884202D12E
:1042E0002068206214E01048006B03218904084014
:1042F0000121C904884202D10011206208E00A4865
:10430000006B032189040840884201D107482062DC
:104310000548006B80210840802802D00548606273
:1043200000E06762FEBD00000010024000127A004B
:1043300000093D00006CDC027F020020809FD50058
:104340001280000010B50246002100230020511108
:10435000002902D10C4C23680BE0012902D10A4C40
:10436000236A06E0022902D1074C636A01E0064C89
:10437000636BD106C90E01248C401C40002C01D077
:10438000012000E0002010BD001002400146002086
:10439000054A5068F02302469A43104602460A43F3
:1043A0001046014A50607047001002400021024A46
:1043B000917011468870704700100240014600203D
:1043C000064A506807231B0202469A4310460246DB
:1043D0000A431046014A5060704700000010024036
:1043E000002807D007490968012212061143054A2F
:1043F000116006E003490968012212069143014A4F
:104400001160704700100240074A52687B23DB03AB
:104410009A43054B5A601A46526803460B431A43A7
:10442000014B5A6070470000001002400146002016
:10443000044AD06A0009000102460A431046014AB4
:10444000D06270470010024001460020044A5068C4
:104450008008800002460A431046014A50607047B7
:104460000010024038B5002000900024002500BF55
:104470001120FFF767FF05460098401C00900521BA
:1044800009030098884201D0002DF1D01120FFF7D8
:1044900059FF002801D0012400E00024204638BD47
:1044A000F0B591B000224A4B10464A4903F00AFA8F
:1044B0000022494B03910290484903C9FCF7B2FA24
:1044C00001910090039B029AFCF7A4FD05910490D2
:1044D000FCF7FCFC0991089000223D4B10463D4939
:1044E00003F0F0F900223E4B039102903D4903C9CD
:1044F000FCF798FA01910090039B029AFCF78AFD61
:1045000005910490FCF7E2FC079106900D213648D6
:1045100002F0E0FD242108A801721221417200245A
:104520000DE0E200089D09980F9028460F99FBF7CF
:104530009BFEC1B20AAAA01C1154601CC4B2042C78
:10454000EFDD00240CE0E200069E3046079F39466E
:10455000FBF78AFEC1B20AAAE01D1154601CC4B266
:10456000042CF0DD2148006804F036FA0446FCF71C
:104570009FFEC1B208A801751C48006804F02CFA1F
:104580000446FCF795FE0004010E08A84175184882
:1045900002F034FDC1B208A881751548401C02F034
:1045A0002DFDC1B208A8C1751248017808A801768E
:1045B0001021093002F099FD08A9487600235A1EFF
:1045C0000AA90D48006805F034F911B0F0BD0000EB
:1045D00000002040000024400080564018020020C7
:1045E000008066402002002044110020D0000020FE
:1045F000650F002000000020D001002010B5044607
:1046000000202249087048708870C870FF20087127
:10461000002048718871FF20C87100201C49087073
:1046200048708870C870FF20087100204871887138
:10463000FF20C871174818490860FF201749087003
:104640004870887014480068FCF732FE1349C8703F
:10465000FF2008714871002C02D00120887102E00F
:1046600000200E49887101200C49C871FF21963144
:104670000648FDF763FDFF2197310548FDF75EFD14
:10468000FF2199310548FDF759FD10BDE1080020D3
:10469000E9080020DCA51543DC000020F10800201B
:1046A000704700001CB50446FEF7AAFEFEF71CFF8B
:1046B000FEF706FF01212B48FEF7A2FC2AA1304895
:1046C00004F08FFC2FA12E4804F08BFCFEF762FD56
:1046D0003248006A0221084330490862FEF768FD4B
:1046E000FEF790FC01202E4908702EA02FA133A3C5
:1046F00035A20091019036A10020FEF77FF93849DC
:10470000087038A239A10120FEF7AEFA3B490870C3
:1047100021E03348007800280BD122A023A127A351
:1047200029A2009101902AA10020FEF767F92C49E7
:10473000087032480078002806D12AA22BA1012057
:10474000FEF792FA2D49087000202D4908702D4976
:1047500008702D490870642003F081F80028D8D033
:104760001CBD0000000400484445564943452057FD
:1047700041532052454C4F414445440D0A0000002E
:10478000004400403E3E3E3E3E3E3E3E3E3E3E3EBD
:104790003E3E3E3E3E3E3E0D0A0D0A0000380140C0
:1047A0006F00002031323334353600006175677593
:1047B00073743234636C69656E7400004D504175DA
:1047C00067757374323400003231303100000000FC
:1047D0006D6F2E796F75636F72732E636F6D00004E
:1047E0007000002031323438380000003139322E68
:1047F0003136322E3130302E33330000710000203C
:1048000022000020210000202000002010B50446D6
:1048100032E01C480068401E1B49085C0A281FD172
:1048200018480068801E085C0D2819D1FEF7DEFFCD
:10483000164801684068164A1160506015480168C2
:104840004068154A1160506014480068401C1349C4
:10485000086000200B4908601421114802F03AFC5E
:104860001048016840680A4A116050600E480168AB
:104870004068094A11605060012002F0F0FF0028F2
:10488000C7D010BD64000020660700201000002083
:10489000A000002018000020B800002048020020DE
:1048A000860F0020180200202002002049E0254841
:1048B0000078002806D124480078002802D1012081
:1048C00002F0CDFF21480078002825D01D4800784F
:1048D00000280DD000201B4908701D480088401C8E
:1048E0001B4908801B48016840681B4A11605060E2
:1048F000184803684068184A116852685B1A90416A
:104900007D2109010022C91A824105DA1148016896
:104910004068114A1160506010480078002810D09B
:104920000948007800280CD002F000FC0948016812
:1049300040680B4A116050600A480088401C0949D1
:104940000880B4E70300002004000020700000206D
:1049500010010020580100204800002071000020B4
:10496000500000201201002010B504464AE02848FB
:104970000078002803D12748007800281DD024485B
:10498000007800280ED02348007800280AD064233D
:1049900002221146204802F015FBFF20F53002F0FC
:1049A0005EFF2FE06423022211461B4802F00AFB3F
:1049B0007D20C00002F053FF24E018480078002852
:1049C00010D002211448FEF71BFBFF20F53002F047
:1049D00046FF02211048FEF711FBFF20F53002F0E0
:1049E0003EFF0FE002210C48FEF70AFB7D20C000CD
:1049F00002F035FF02210848FEF700FB7D20C000D1
:104A000002F02DFF012002F02AFF0028AFD010BDD8
:104A10007000002071000020000400486F0000209A
:104A200008B5F7E300231A466946FE48006804F01B
:104A3000F9FD01287ED168460278FB4801680068CC
:104A4000401CF94B1860F948425418460068642825
:104A500002D1002019460860F5480078002829D0C6
:104A6000684600783A280ED0F248008804280ADA0E
:104A700068460178EF4802880088401CED4B18809A
:104A8000ED48815416E0EC4802F0B8FAEB49088092
:104A90000846008801218902884202DD0020E7499A
:104AA00008800020E2490870E24908800421E248B9
:104AB00002F010FBE148008800282FD0E048008871
:104AC000401CDF4908800846008803280DDDDD48CA
:104AD0000088401CDB490880DB480078002804D0AF
:104AE00068460178D94804F06DFAD648008801215B
:104AF0008902884202D10020D2490880D14800882A
:104B0000CE490988884209D10020CC490880CD4986
:104B10000880CB4908800120CD490870CD48007835
:104B2000002832D06846007806281AD008DC012810
:104B30000BD000E0F0E302280BD005281DD10CE0DB
:104B4000A12816D0FF2818D10FE00420C249087010
:104B500017E00E20C049087013E00420BE49087019
:104B60000FE00C20BC4908700BE00520BA49087022
:104B700007E00520B849087003E00020B649087036
:104B800000BF00BF0020B349087068460078452880
:104B900024D008DC2B280DD02C285FD0302871D0F1
:104BA00043287DD130E049283CD0522808D05628EF
:104BB00076D145E0A9480078401CA849087073E008
:104BC000A6480078012805D1A4480078401CA349D4
:104BD000087002E00020A149087065E09F48007855
:104BE000022807D09D480078042803D09B4800780D
:104BF000072805D199480078401C9849087002E0C0
:104C00000020964908704FE094480078032805D1A9
:104C100092480078401C9149087002E000208F49BA
:104C2000087041E08D480078052805D18B48007850
:104C3000401C8A49087002E000208849087033E06F
:104C400086480078062805D184480078401C8349AE
:104C5000087002E000208149087025E07F48007854
:104C6000082803D07D4800780A2805D17B480078C1
:104C7000401C7A49087002E000207849087013E06F
:104C800000E00DE075480078092805D173480078E8
:104C9000401C7249087002E000207049087003E06F
:104CA00000206E49087000BF00BF6C4800780B28D8
:104CB0000BD101205E4908700020684908706848DF
:104CC00001684068674A116050606846007845286E
:104CD00024D008DC2B280DD02C285FD031286BD0B5
:104CE000432878D130E049283CD0522808D05628B3
:104CF00071D145E05C480078401C5B4908706EE06B
:104D000059480078012805D157480078401C564979
:104D1000087002E000205449087060E052480078B2
:104D2000022807D050480078042803D04E48007865
:104D3000072805D14C480078401C4B49087002E018
:104D40000020494908704AE047480078032805D107
:104D500045480078401C4449087002E00020424960
:104D600008703CE040480078052805D13E480078AE
:104D7000401C3D49087002E000203B4908702EE0CD
:104D800039480078062805D137480078401C364954
:104D9000087002E000203449087020E032480078B2
:104DA000082805D130480078401C2F49087002E0DF
:104DB00000202D49087012E02B480078092806D100
:104DC00029480078401C2849087003E003E00020CF
:104DD0002549087003E000202349087000BF00BF88
:104DE000214800780A280BD10120204908700020B2
:104DF0001D4908701A49086849681D4A10605160C9
:104E00001A480078002840D06846007824283CD111
:104E100068460178174802880088401C154B1880A6
:104E200015482BE0D4010020500200206508002026
:104E3000760200205A020020010900205C020020B6
:104E40007C02002056020020700000200044004038
:104E500003000020750200207A0200207302002067
:104E60005801002038000020740200207702002042
:104E70004000002006000020050900208154012088
:104E8000F84908700020F8490870F84800780028B0
:104E90003CD068460278F64801880088401CF44BF4
:104EA0001880F448425418460088FF21F5318842A2
:104EB00007D1002019460880EF480078401CEE49D1
:104EC0000870EE480078401CEC49087008460078ED
:104ED000E6490978884219D10120E9490870E94872
:104EE0000078401CE7490870E7480088401CE64904
:104EF0000880E64801684068E54A1160506000207B
:104F0000D8490870DD490870D849087068460078AB
:104F10004B2807D04F2813D1DE480078401CDD49CC
:104F2000087011E0DB480078012805D1D9480078E5
:104F3000401CD849087002E00020D649087003E000
:104F40000020D449087000BF00BFD2480078022872
:104F500005D10020CF4908700120CF49087068466C
:104F600000784E282AD004DC432807D0452853D1A6
:104F700036E04F2814D054284ED13FE0C74800787F
:104F8000002803D0C5480078042805D1C34800781C
:104F9000401CC249087002E00020C04908703FE090
:104FA000BE480078012805D1BC480078401CBB49A8
:104FB000087002E00020B949087031E0B748007875
:104FC000022803D0B5480078032805D1B3480078FB
:104FD000401CB249087002E00020B04908701FE090
:104FE000AE480078032805D1AC480078401CAB4996
:104FF000087002E00020A949087011E0A848007874
:10500000052805D1A5480078401CA449087002E095
:105010000020A249087003E00020A049087000BFEA
:1050200000BF9E480078062805D100209B490870E3
:1050300001209949087068460078202807D03E284A
:1050400013D198480078401C9649087011E09548A3
:105050000078012805D193480078401C91490870D8
:1050600002E000208F49087003E000208D4908709D
:1050700000BF00BF8B480078022805D101208A4973
:10508000087000208749087068460078452804D0D9
:105090004F281ED052282AD105E084480078401CB1
:1050A0008249087027E081480078012807D07F48AE
:1050B0000078022803D07D480078042805D17B4879
:1050C0000078401C7949087002E000207749087098
:1050D00011E076480078032805D174480078401C18
:1050E0007249087002E000207049087003E0002057
:1050F0006E49087000BF00BF6C480078052805D1D4
:1051000000206A49087001206949087068460078E3
:105110004C2812D006DC432809D0442845D0452825
:1051200051D134E04F2816D053284CD121E06148AA
:105130000078401C5F49087049E05E48007801280B
:1051400005D15C480078401C5A49087002E00020F4
:10515000584908703BE057480078022805D1554867
:105160000078401C5349087002E000205149087043
:105170002DE050480078032805D14E480078401CA7
:105180004C49087002E000204A4908701FE0494875
:105190000078042805D147480078401C454908702C
:1051A00002E000204349087011E0424800780528D9
:1051B00005D140480078401C3E49087002E00020BC
:1051C0003C49087003E000203A49087000BF00BF66
:1051D00038480078062805D101203749087000209A
:1051E00034490870684600784B283AD006DC2028FD
:1051F0006AD044282BD0452870D10CE04E2818D016
:105200004F2871D0532869D12C480078401C2B4975
:1052100008708AE065E229480078012805D127480E
:105220000078401C2549087002E0002023490870DE
:105230007BE022480078022805D120480078401CF5
:105240001E49087002E000201C4908706DE01B48F0
:105250000078032834D119480078401C1749087099
:1052600031E04FE075020020770200207A02002032
:105270000600002005090020610100207B020020BB
:10528000040000207902002026010020580100209F
:10529000700100206D0200205E02002070020020DC
:1052A000740200206C0200206802002071020020BD
:1052B0005F02002072020020240100206E02002004
:1052C0000020F849087030E0F6480078042807D13B
:1052D000F4480078401CF349087004E021E003E042
:1052E0000020F049087020E0EE480078052805D13C
:1052F000EC480078401CEB49087002E00020E949C6
:10530000087012E0E7480078062806D1E5480078E2
:10531000401CE449087003E0E4E10020E149087022
:1053200003E00020DF49087000BF00BFDD480078BF
:10533000072805D10120DC4908700020D9490870F0
:105340006846007846284FD008DC20283ED0412807
:1053500058D044282CD0452870D10DE049285FD082
:105360004C286DD04E2815D0532877D1CF480078DF
:10537000401CCE49087075E0CC480078012805D162
:10538000CA480078401CC949087002E00020C7499B
:10539000087067E0C5480078022805D1C348007846
:1053A000401CC249087002E00020C049087059E062
:1053B000BE480078032805D1BC480078401CBB4992
:1053C000087002E00020B94908704BE0B748007847
:1053D000042805D1B5480078401CB449087002E0A3
:1053E0000020B24908703DE0B0480078052805D19A
:1053F000AE480078401CAD49087002E00020AB497F
:1054000008702FE0A9480078062805D1A748007841
:10541000401CA649087002E00020A449087021E061
:10542000A2480078072805D1A0480078401C9F4971
:10543000087002E000209D49087013E00EE0FFE7CD
:105440009A480078082805D198480078401C974968
:10545000087002E000209549087003E0002093499D
:10546000087000BF00BF9148007809280AD10120C8
:105470008F49087000208D4908708E480068401CD4
:105480008C4908606846007832286ED00CDC2F28E2
:105490003DD004DC20286BD02E2868D157E030287E
:1054A00074D0312863D140E04F2870D004DC482804
:1054B00007D04B285BD19DE050281AD0542856D1F4
:1054C00005E07D480078401C7B490870A4E07A48DC
:1054D0000078012803D078480078022805D1764862
:1054E0000078401C7449087002E00020724908707E
:1054F00092E071480078032805D16F480078401C7D
:105500006D49087002E000206B49087084E06A4829
:105510000078042805D168480078401C6649087066
:1055200002E000206449087076E0634800780528AE
:1055300003D061480078072805D15F480078401CF7
:105540005D49087002E000205B49087064E05A4839
:105550000078062805D158480078401C5649087044
:1055600002E000205449087056E015E000E04FE0EA
:1055700051480078082803D04F4800780C2807D1FC
:105580004D480078401C4C49087004E012E023E0CC
:105590000020494908703FE047480078092805D1B4
:1055A00045480078401C4449087002E00020424908
:1055B000087031E0404800780A2803D03E4800785F
:1055C0000B2805D13C480078401C3B49087002E09C
:1055D0000020394908701FE0374800780D2805D1B0
:1055E00035480078401C3449087002E000203249F8
:1055F000087011E0304800780E2805D12E48007858
:10560000401C2D49087002E000202B49087003E07F
:1056100000202949087000BF00BF274800780F28E4
:1056200005D10120254908700020234908706846EB
:105630000078472827D0492809D04E2815D052286D
:1056400040D11F480078401C1D4908703EE01C48AE
:105650000078012805D11A480078401C18490870C4
:1056600002E000201649087030E015480078022852
:1056700005D113480078401C1149087002E0002051
:105680000F49087022E00E480078032805D10C4825
:105690000078401C0A49087002E0002008490870A0
:1056A00014E000006E020020600200206F02002063
:1056B00061020020640200206A02002069020020CA
:1056C0006B02002000200A49087000BF00BF084894
:1056D0000078042809D101200649087000200449F7
:1056E000087002E0012002F0BAF8FFF79BF9000011
:1056F0006B020020250100207FB506468DE04A4858
:1057000003C803910290494803C80191009048489A
:1057100048490CC803C9FCF7E9F80446FAF7C8FF82
:105720004549086045480078042822D008DC002854
:1057300068D001280BD002280FD003286CD112E0CA
:10574000052820D0062825D0FF2865D14AE003F09F
:105750007DF900203A4908705EE000203749087062
:105760003749087058E003F0B7F900203449087051
:1057700052E00120FEF742FF00203149087064200A
:1057800002F06DF848E003202C49087000202C49F5
:10579000087041E000202B4908702B4908702B4904
:1057A000087000212A4A116051602A4A1160516034
:1057B000294908602049086000BF0BE0002203016E
:1057C000264CE3181A605A6003011B199A60DA60CC
:1057D000411CC8B20A28F1DB00201849087018499A
:1057E000087019E016480078042807DA0020FEF750
:1057F00005FF13480078401C11490870642002F02E
:105800002EF809E00120FEF7F9FE642002F027F8E7
:1058100000200B49087000BF00BF012002F01FF8F4
:10582000002800D16BE77FBDC0000020A800002049
:10583000B8000020A0000020D000002000000020C0
:1058400060000020530100205201002002000020CF
:10585000B0000020C8000020D4000020401000202C
:1058600070B5064619480468456829E0184800786C
:1058700000280FD0154801684068091BA8417D2207
:10588000D2000023511A834104DAFEF709FE0F48C3
:10589000046845680F480078002811D00EA112480E
:1058A000FAF7B6FD002805D110A10F48FAF7B0FDB0
:1058B000002805D0FF201149087000200549087014
:1058C000012001F0CCFF0028D0D070BD580100208D
:1058D00071000020250100202B373938323239374A
:1058E0003933393600000000650800202B3739387D
:1058F00032323831343730390000000000000020E7
:1059000086B0FF2112319A4801F0E4FB2EE199485C
:10591000006803F041FC9849087000231A4601A969
:105920009448006803F07EFE012871D19348007806
:1059300000286DD068464079A0286AD169468879E8
:1059400000028F4908436946C979090408438D4913
:105950000860084600688C4A811A904266D024DCB0
:105960008A4A811A90424FD012DC89494018002897
:105970003AD001218902401A3AD0FF38FF38023864
:10598000002839D0FF38FF38023800286ED137E0C0
:1059900005200002081A3DD0FF38013800283DD00C
:1059A0000B210902401A61D13CE02B225202881AD5
:1059B00091424BD00BDC7748081A3BD005210902F5
:1059C000401A3BD009210902401A4FD13AE0FF3872
:1059D000013800283ED07049401800283ED0FF38DA
:1059E0000138002842D13DE000206C49087045E0B4
:1059F00001206A49087041E00220684908703DE0D2
:105A000003206649087039E004206449087035E0D5
:105A1000A9E082E00520614908702FE006205F4977
:105A200008702BE007205D49087027E008205B49DB
:105A3000087023E00920594908701FE00A205749DF
:105A400008701BE00B205549087017E00C205349E3
:105A5000087013E00D20514908700FE013204F49E2
:105A600008700BE014204D49087007E069468879FA
:105A7000C979090208434349086000BF00BF414893
:105A80000068474A811A904216D008DC4549401800
:105A9000002809D044494018002819D108E00D29F0
:105AA0000ED0B12914D10FE00E203C4908700FE050
:105AB0000F203A4908700BE010203849087007E0C1
:105AC00011203649087003E012203449087000BFE5
:105AD00000BF00200AE001A90A5C304909780D23C3
